{
  "_format": "hh-sol-artifact-1",
  "contractName": "B",
  "sourceName": "contracts/A.sol",
  "abi": [
    {
      "inputs": [
        {
          "internalType": "address",
          "name": "_A",
          "type": "address"
        }
      ],
      "stateMutability": "nonpayable",
      "type": "constructor"
    },
    {
      "inputs": [],
      "name": "getB",
      "outputs": [
        {
          "internalType": "uint256",
          "name": "",
          "type": "uint256"
        }
      ],
      "stateMutability": "view",
      "type": "function"
    },
    {
      "inputs": [
        {
          "internalType": "uint256",
          "name": "_b",
          "type": "uint256"
        }
      ],
      "name": "setB",
      "outputs": [],
      "stateMutability": "nonpayable",
      "type": "function"
    }
  ],
  "bytecode": "0x608060405234801561001057600080fd5b5060405161067e38038061067e83398181016040528101906100329190610128565b80600060020160026101000a81548173ffffffffffffffffffffffffffffffffffffffff021916908373ffffffffffffffffffffffffffffffffffffffff16021790555060046000600101819055506045600060020160006101000a81548160ff021916908360ff16021790555060f5600060020160016101000a81548160ff021916908360ff16021790555050610155565b600080fd5b600073ffffffffffffffffffffffffffffffffffffffff82169050919050565b60006100f5826100ca565b9050919050565b610105816100ea565b811461011057600080fd5b50565b600081519050610122816100fc565b92915050565b60006020828403121561013e5761013d6100c5565b5b600061014c84828501610113565b91505092915050565b61051a806101646000396000f3fe608060405234801561001057600080fd5b50600436106100365760003560e01c806309cdcf9b1461003b578063a1c5191514610057575b600080fd5b610055600480360381019061005091906102ef565b610075565b005b61005f6101e6565b60405161006c919061032b565b60405180910390f35b80600060010181905550600060020160029054906101000a900473ffffffffffffffffffffffffffffffffffffffff1673ffffffffffffffffffffffffffffffffffffffff166001826100c89190610375565b6040516024016100d8919061032b565b6040516020818303038152906040527fee919d50000000000000000000000000000000000000000000000000000000007bffffffffffffffffffffffffffffffffffffffffffffffffffffffff19166020820180517bffffffffffffffffffffffffffffffffffffffffffffffffffffffff83818316178352505050506040516101629190610445565b600060405180830381855af49150503d806000811461019d576040519150601f19603f3d011682016040523d82523d6000602084013e6101a2565b606091505b5050506101e36040518060400160405280600781526020017f73756363657373000000000000000000000000000000000000000000000000008152506101f2565b50565b60008060010154905090565b6102888160405160240161020691906104c2565b6040516020818303038152906040527f41304fac000000000000000000000000000000000000000000000000000000007bffffffffffffffffffffffffffffffffffffffffffffffffffffffff19166020820180517bffffffffffffffffffffffffffffffffffffffffffffffffffffffff838183161783525050505061028b565b50565b60008151905060006a636f6e736f6c652e6c6f679050602083016000808483855afa5050505050565b600080fd5b6000819050919050565b6102cc816102b9565b81146102d757600080fd5b50565b6000813590506102e9816102c3565b92915050565b600060208284031215610305576103046102b4565b5b6000610313848285016102da565b91505092915050565b610325816102b9565b82525050565b6000602082019050610340600083018461031c565b92915050565b7f4e487b7100000000000000000000000000000000000000000000000000000000600052601160045260246000fd5b6000610380826102b9565b915061038b836102b9565b9250827fffffffffffffffffffffffffffffffffffffffffffffffffffffffffffffffff038211156103c0576103bf610346565b5b828201905092915050565b600081519050919050565b600081905092915050565b60005b838110156103ff5780820151818401526020810190506103e4565b8381111561040e576000848401525b50505050565b600061041f826103cb565b61042981856103d6565b93506104398185602086016103e1565b80840191505092915050565b60006104518284610414565b915081905092915050565b600081519050919050565b600082825260208201905092915050565b6000601f19601f8301169050919050565b60006104948261045c565b61049e8185610467565b93506104ae8185602086016103e1565b6104b781610478565b840191505092915050565b600060208201905081810360008301526104dc8184610489565b90509291505056fea26469706673582212208ea9984eb0b89e3e3efe96a61bbf6a1c1dd8e4ae1dc46c97493bf54b14aa276d64736f6c634300080a0033",
  "linkReferences": {},
  "deployedLinkReferences": {}
}